{
  "contractName": "AvatarRendererLite",
  "abi": [
    {
      "inputs": [
        {
          "internalType": "string",
          "name": "_name",
          "type": "string"
        },
        {
          "internalType": "string",
          "name": "_symbol",
          "type": "string"
        }
      ],
      "stateMutability": "nonpayable",
      "type": "constructor"
    },
    {
      "anonymous": false,
      "inputs": [
        {
          "indexed": true,
          "internalType": "address",
          "name": "owner",
          "type": "address"
        },
        {
          "indexed": true,
          "internalType": "address",
          "name": "approved",
          "type": "address"
        },
        {
          "indexed": true,
          "internalType": "uint256",
          "name": "tokenId",
          "type": "uint256"
        }
      ],
      "name": "Approval",
      "type": "event"
    },
    {
      "anonymous": false,
      "inputs": [
        {
          "indexed": true,
          "internalType": "address",
          "name": "owner",
          "type": "address"
        },
        {
          "indexed": true,
          "internalType": "address",
          "name": "operator",
          "type": "address"
        },
        {
          "indexed": false,
          "internalType": "bool",
          "name": "approved",
          "type": "bool"
        }
      ],
      "name": "ApprovalForAll",
      "type": "event"
    },
    {
      "anonymous": false,
      "inputs": [
        {
          "indexed": true,
          "internalType": "address",
          "name": "from",
          "type": "address"
        },
        {
          "indexed": true,
          "internalType": "address",
          "name": "to",
          "type": "address"
        },
        {
          "indexed": true,
          "internalType": "uint256",
          "name": "tokenId",
          "type": "uint256"
        }
      ],
      "name": "Transfer",
      "type": "event"
    },
    {
      "inputs": [
        {
          "internalType": "address",
          "name": "to",
          "type": "address"
        },
        {
          "internalType": "uint256",
          "name": "tokenId",
          "type": "uint256"
        }
      ],
      "name": "approve",
      "outputs": [],
      "stateMutability": "nonpayable",
      "type": "function"
    },
    {
      "inputs": [
        {
          "internalType": "address",
          "name": "owner",
          "type": "address"
        }
      ],
      "name": "balanceOf",
      "outputs": [
        {
          "internalType": "uint256",
          "name": "",
          "type": "uint256"
        }
      ],
      "stateMutability": "view",
      "type": "function",
      "constant": true
    },
    {
      "inputs": [],
      "name": "counterSupply",
      "outputs": [
        {
          "internalType": "uint256",
          "name": "",
          "type": "uint256"
        }
      ],
      "stateMutability": "view",
      "type": "function",
      "constant": true
    },
    {
      "inputs": [
        {
          "internalType": "uint256",
          "name": "tokenId",
          "type": "uint256"
        }
      ],
      "name": "getApproved",
      "outputs": [
        {
          "internalType": "address",
          "name": "",
          "type": "address"
        }
      ],
      "stateMutability": "view",
      "type": "function",
      "constant": true
    },
    {
      "inputs": [
        {
          "internalType": "address",
          "name": "owner",
          "type": "address"
        },
        {
          "internalType": "address",
          "name": "operator",
          "type": "address"
        }
      ],
      "name": "isApprovedForAll",
      "outputs": [
        {
          "internalType": "bool",
          "name": "",
          "type": "bool"
        }
      ],
      "stateMutability": "view",
      "type": "function",
      "constant": true
    },
    {
      "inputs": [],
      "name": "name",
      "outputs": [
        {
          "internalType": "string",
          "name": "",
          "type": "string"
        }
      ],
      "stateMutability": "view",
      "type": "function",
      "constant": true
    },
    {
      "inputs": [
        {
          "internalType": "uint256",
          "name": "tokenId",
          "type": "uint256"
        }
      ],
      "name": "ownerOf",
      "outputs": [
        {
          "internalType": "address",
          "name": "",
          "type": "address"
        }
      ],
      "stateMutability": "view",
      "type": "function",
      "constant": true
    },
    {
      "inputs": [],
      "name": "paused",
      "outputs": [
        {
          "internalType": "bool",
          "name": "",
          "type": "bool"
        }
      ],
      "stateMutability": "view",
      "type": "function",
      "constant": true
    },
    {
      "inputs": [
        {
          "internalType": "address",
          "name": "from",
          "type": "address"
        },
        {
          "internalType": "address",
          "name": "to",
          "type": "address"
        },
        {
          "internalType": "uint256",
          "name": "tokenId",
          "type": "uint256"
        }
      ],
      "name": "safeTransferFrom",
      "outputs": [],
      "stateMutability": "nonpayable",
      "type": "function"
    },
    {
      "inputs": [
        {
          "internalType": "address",
          "name": "from",
          "type": "address"
        },
        {
          "internalType": "address",
          "name": "to",
          "type": "address"
        },
        {
          "internalType": "uint256",
          "name": "tokenId",
          "type": "uint256"
        },
        {
          "internalType": "bytes",
          "name": "data",
          "type": "bytes"
        }
      ],
      "name": "safeTransferFrom",
      "outputs": [],
      "stateMutability": "nonpayable",
      "type": "function"
    },
    {
      "inputs": [
        {
          "internalType": "address",
          "name": "operator",
          "type": "address"
        },
        {
          "internalType": "bool",
          "name": "approved",
          "type": "bool"
        }
      ],
      "name": "setApprovalForAll",
      "outputs": [],
      "stateMutability": "nonpayable",
      "type": "function"
    },
    {
      "inputs": [
        {
          "internalType": "bytes4",
          "name": "interfaceId",
          "type": "bytes4"
        }
      ],
      "name": "supportsInterface",
      "outputs": [
        {
          "internalType": "bool",
          "name": "",
          "type": "bool"
        }
      ],
      "stateMutability": "view",
      "type": "function",
      "constant": true
    },
    {
      "inputs": [],
      "name": "symbol",
      "outputs": [
        {
          "internalType": "string",
          "name": "",
          "type": "string"
        }
      ],
      "stateMutability": "view",
      "type": "function",
      "constant": true
    },
    {
      "inputs": [
        {
          "internalType": "uint256",
          "name": "tokenId",
          "type": "uint256"
        }
      ],
      "name": "tokenURI",
      "outputs": [
        {
          "internalType": "string",
          "name": "",
          "type": "string"
        }
      ],
      "stateMutability": "view",
      "type": "function",
      "constant": true
    },
    {
      "inputs": [
        {
          "internalType": "address",
          "name": "from",
          "type": "address"
        },
        {
          "internalType": "address",
          "name": "to",
          "type": "address"
        },
        {
          "internalType": "uint256",
          "name": "tokenId",
          "type": "uint256"
        }
      ],
      "name": "transferFrom",
      "outputs": [],
      "stateMutability": "nonpayable",
      "type": "function"
    },
    {
      "inputs": [
        {
          "internalType": "string",
          "name": "_metadataIPFSHASH",
          "type": "string"
        }
      ],
      "name": "mint",
      "outputs": [
        {
          "internalType": "uint256",
          "name": "",
          "type": "uint256"
        }
      ],
      "stateMutability": "payable",
      "type": "function",
      "payable": true
    }
  ],
  "bytecode": "0x608060405260006007556001600860006101000a81548160ff0219169083151502179055503480156200003157600080fd5b50604051620031cd380380620031cd83398181016040528101906200005791906200021a565b818181600090816200006a9190620004ea565b5080600190816200007c9190620004ea565b5050505050620005d1565b6000604051905090565b600080fd5b600080fd5b600080fd5b600080fd5b6000601f19601f8301169050919050565b7f4e487b7100000000000000000000000000000000000000000000000000000000600052604160045260246000fd5b620000f082620000a5565b810181811067ffffffffffffffff82111715620001125762000111620000b6565b5b80604052505050565b60006200012762000087565b9050620001358282620000e5565b919050565b600067ffffffffffffffff821115620001585762000157620000b6565b5b6200016382620000a5565b9050602081019050919050565b60005b838110156200019057808201518184015260208101905062000173565b60008484015250505050565b6000620001b3620001ad846200013a565b6200011b565b905082815260208101848484011115620001d257620001d1620000a0565b5b620001df84828562000170565b509392505050565b600082601f830112620001ff57620001fe6200009b565b5b8151620002118482602086016200019c565b91505092915050565b6000806040838503121562000234576200023362000091565b5b600083015167ffffffffffffffff81111562000255576200025462000096565b5b6200026385828601620001e7565b925050602083015167ffffffffffffffff81111562000287576200028662000096565b5b6200029585828601620001e7565b9150509250929050565b600081519050919050565b7f4e487b7100000000000000000000000000000000000000000000000000000000600052602260045260246000fd5b60006002820490506001821680620002f257607f821691505b602082108103620003085762000307620002aa565b5b50919050565b60008190508160005260206000209050919050565b60006020601f8301049050919050565b600082821b905092915050565b600060088302620003727fffffffffffffffffffffffffffffffffffffffffffffffffffffffffffffffff8262000333565b6200037e868362000333565b95508019841693508086168417925050509392505050565b6000819050919050565b6000819050919050565b6000620003cb620003c5620003bf8462000396565b620003a0565b62000396565b9050919050565b6000819050919050565b620003e783620003aa565b620003ff620003f682620003d2565b84845462000340565b825550505050565b600090565b6200041662000407565b62000423818484620003dc565b505050565b5b818110156200044b576200043f6000826200040c565b60018101905062000429565b5050565b601f8211156200049a5762000464816200030e565b6200046f8462000323565b810160208510156200047f578190505b620004976200048e8562000323565b83018262000428565b50505b505050565b600082821c905092915050565b6000620004bf600019846008026200049f565b1980831691505092915050565b6000620004da8383620004ac565b9150826002028217905092915050565b620004f5826200029f565b67ffffffffffffffff811115620005115762000510620000b6565b5b6200051d8254620002d9565b6200052a8282856200044f565b600060209050601f8311600181146200056257600084156200054d578287015190505b620005598582620004cc565b865550620005c9565b601f19841662000572866200030e565b60005b828110156200059c5784890151825560018201915060208501945060208101905062000575565b86831015620005bc5784890151620005b8601f891682620004ac565b8355505b6001600288020188555050505b505050505050565b612bec80620005e16000396000f3fe6080604052600436106100f35760003560e01c80636352211e1161008a578063b88d4fde11610059578063b88d4fde1461033c578063c87b56dd14610365578063d85d3d27146103a2578063e985e9c5146103d2576100f3565b80636352211e1461026e57806370a08231146102ab57806395d89b41146102e8578063a22cb46514610313576100f3565b806323b872dd116100c657806323b872dd146101c65780633486ced3146101ef57806342842e0e1461021a5780635c975abb14610243576100f3565b806301ffc9a7146100f857806306fdde0314610135578063081812fc14610160578063095ea7b31461019d575b600080fd5b34801561010457600080fd5b5061011f600480360381019061011a919061197e565b61040f565b60405161012c91906119c6565b60405180910390f35b34801561014157600080fd5b5061014a6104f1565b6040516101579190611a71565b60405180910390f35b34801561016c57600080fd5b5061018760048036038101906101829190611ac9565b610583565b6040516101949190611b37565b60405180910390f35b3480156101a957600080fd5b506101c460048036038101906101bf9190611b7e565b6105c9565b005b3480156101d257600080fd5b506101ed60048036038101906101e89190611bbe565b6106e0565b005b3480156101fb57600080fd5b50610204610740565b6040516102119190611c20565b60405180910390f35b34801561022657600080fd5b50610241600480360381019061023c9190611bbe565b610746565b005b34801561024f57600080fd5b50610258610766565b60405161026591906119c6565b60405180910390f35b34801561027a57600080fd5b5061029560048036038101906102909190611ac9565b610779565b6040516102a29190611b37565b60405180910390f35b3480156102b757600080fd5b506102d260048036038101906102cd9190611c3b565b61082a565b6040516102df9190611c20565b60405180910390f35b3480156102f457600080fd5b506102fd6108e1565b60405161030a9190611a71565b60405180910390f35b34801561031f57600080fd5b5061033a60048036038101906103359190611c94565b610973565b005b34801561034857600080fd5b50610363600480360381019061035e9190611e09565b610989565b005b34801561037157600080fd5b5061038c60048036038101906103879190611ac9565b6109eb565b6040516103999190611a71565b60405180910390f35b6103bc60048036038101906103b79190611f2d565b610afd565b6040516103c99190611c20565b60405180910390f35b3480156103de57600080fd5b506103f960048036038101906103f49190611f76565b610b51565b60405161040691906119c6565b60405180910390f35b60007f80ac58cd000000000000000000000000000000000000000000000000000000007bffffffffffffffffffffffffffffffffffffffffffffffffffffffff1916827bffffffffffffffffffffffffffffffffffffffffffffffffffffffff191614806104da57507f5b5e139f000000000000000000000000000000000000000000000000000000007bffffffffffffffffffffffffffffffffffffffffffffffffffffffff1916827bffffffffffffffffffffffffffffffffffffffffffffffffffffffff1916145b806104ea57506104e982610be5565b5b9050919050565b60606000805461050090611fe5565b80601f016020809104026020016040519081016040528092919081815260200182805461052c90611fe5565b80156105795780601f1061054e57610100808354040283529160200191610579565b820191906000526020600020905b81548152906001019060200180831161055c57829003601f168201915b5050505050905090565b600061058e82610c4f565b6004600083815260200190815260200160002060009054906101000a900473ffffffffffffffffffffffffffffffffffffffff169050919050565b60006105d482610779565b90508073ffffffffffffffffffffffffffffffffffffffff168373ffffffffffffffffffffffffffffffffffffffff1603610644576040517f08c379a000000000000000000000000000000000000000000000000000000000815260040161063b90612088565b60405180910390fd5b8073ffffffffffffffffffffffffffffffffffffffff16610663610c9a565b73ffffffffffffffffffffffffffffffffffffffff16148061069257506106918161068c610c9a565b610b51565b5b6106d1576040517f08c379a00000000000000000000000000000000000000000000000000000000081526004016106c89061211a565b60405180910390fd5b6106db8383610ca2565b505050565b6106f16106eb610c9a565b82610d5b565b610730576040517f08c379a0000000000000000000000000000000000000000000000000000000008152600401610727906121ac565b60405180910390fd5b61073b838383610df0565b505050565b60075481565b61076183838360405180602001604052806000815250610989565b505050565b600860009054906101000a900460ff1681565b6000806002600084815260200190815260200160002060009054906101000a900473ffffffffffffffffffffffffffffffffffffffff169050600073ffffffffffffffffffffffffffffffffffffffff168173ffffffffffffffffffffffffffffffffffffffff1603610821576040517f08c379a000000000000000000000000000000000000000000000000000000000815260040161081890612218565b60405180910390fd5b80915050919050565b60008073ffffffffffffffffffffffffffffffffffffffff168273ffffffffffffffffffffffffffffffffffffffff160361089a576040517f08c379a0000000000000000000000000000000000000000000000000000000008152600401610891906122aa565b60405180910390fd5b600360008373ffffffffffffffffffffffffffffffffffffffff1673ffffffffffffffffffffffffffffffffffffffff168152602001908152602001600020549050919050565b6060600180546108f090611fe5565b80601f016020809104026020016040519081016040528092919081815260200182805461091c90611fe5565b80156109695780601f1061093e57610100808354040283529160200191610969565b820191906000526020600020905b81548152906001019060200180831161094c57829003601f168201915b5050505050905090565b61098561097e610c9a565b8383611056565b5050565b61099a610994610c9a565b83610d5b565b6109d9576040517f08c379a00000000000000000000000000000000000000000000000000000000081526004016109d0906121ac565b60405180910390fd5b6109e5848484846111c2565b50505050565b60606109f682610c4f565b6000600660008481526020019081526020016000208054610a1690611fe5565b80601f0160208091040260200160405190810160405280929190818152602001828054610a4290611fe5565b8015610a8f5780601f10610a6457610100808354040283529160200191610a8f565b820191906000526020600020905b815481529060010190602001808311610a7257829003601f168201915b505050505090506000610aa061121e565b90506000815103610ab5578192505050610af8565b600082511115610aea578082604051602001610ad2929190612306565b60405160208183030381529060405292505050610af8565b610af38461125b565b925050505b919050565b6000610b17336001600754610b129190612359565b6112c3565b610b2f6001600754610b299190612359565b836112e1565b60076000815480929190610b429061238d565b91905055506007549050919050565b6000600560008473ffffffffffffffffffffffffffffffffffffffff1673ffffffffffffffffffffffffffffffffffffffff16815260200190815260200160002060008373ffffffffffffffffffffffffffffffffffffffff1673ffffffffffffffffffffffffffffffffffffffff16815260200190815260200160002060009054906101000a900460ff16905092915050565b60007f01ffc9a7000000000000000000000000000000000000000000000000000000007bffffffffffffffffffffffffffffffffffffffffffffffffffffffff1916827bffffffffffffffffffffffffffffffffffffffffffffffffffffffff1916149050919050565b610c588161134e565b610c97576040517f08c379a0000000000000000000000000000000000000000000000000000000008152600401610c8e90612218565b60405180910390fd5b50565b600033905090565b816004600083815260200190815260200160002060006101000a81548173ffffffffffffffffffffffffffffffffffffffff021916908373ffffffffffffffffffffffffffffffffffffffff160217905550808273ffffffffffffffffffffffffffffffffffffffff16610d1583610779565b73ffffffffffffffffffffffffffffffffffffffff167f8c5be1e5ebec7d5bd14f71427d1e84f3dd0314c0f7b2291e5b200ac8c7c3b92560405160405180910390a45050565b600080610d6783610779565b90508073ffffffffffffffffffffffffffffffffffffffff168473ffffffffffffffffffffffffffffffffffffffff161480610da95750610da88185610b51565b5b80610de757508373ffffffffffffffffffffffffffffffffffffffff16610dcf84610583565b73ffffffffffffffffffffffffffffffffffffffff16145b91505092915050565b8273ffffffffffffffffffffffffffffffffffffffff16610e1082610779565b73ffffffffffffffffffffffffffffffffffffffff1614610e66576040517f08c379a0000000000000000000000000000000000000000000000000000000008152600401610e5d90612447565b60405180910390fd5b600073ffffffffffffffffffffffffffffffffffffffff168273ffffffffffffffffffffffffffffffffffffffff1603610ed5576040517f08c379a0000000000000000000000000000000000000000000000000000000008152600401610ecc906124d9565b60405180910390fd5b610ee08383836113ba565b610eeb600082610ca2565b6001600360008573ffffffffffffffffffffffffffffffffffffffff1673ffffffffffffffffffffffffffffffffffffffff1681526020019081526020016000206000828254610f3b91906124f9565b925050819055506001600360008473ffffffffffffffffffffffffffffffffffffffff1673ffffffffffffffffffffffffffffffffffffffff1681526020019081526020016000206000828254610f929190612359565b92505081905550816002600083815260200190815260200160002060006101000a81548173ffffffffffffffffffffffffffffffffffffffff021916908373ffffffffffffffffffffffffffffffffffffffff160217905550808273ffffffffffffffffffffffffffffffffffffffff168473ffffffffffffffffffffffffffffffffffffffff167fddf252ad1be2c89b69c2b068fc378daa952ba7f163c4a11628f55a4df523b3ef60405160405180910390a46110518383836113ca565b505050565b8173ffffffffffffffffffffffffffffffffffffffff168373ffffffffffffffffffffffffffffffffffffffff16036110c4576040517f08c379a00000000000000000000000000000000000000000000000000000000081526004016110bb90612579565b60405180910390fd5b80600560008573ffffffffffffffffffffffffffffffffffffffff1673ffffffffffffffffffffffffffffffffffffffff16815260200190815260200160002060008473ffffffffffffffffffffffffffffffffffffffff1673ffffffffffffffffffffffffffffffffffffffff16815260200190815260200160002060006101000a81548160ff0219169083151502179055508173ffffffffffffffffffffffffffffffffffffffff168373ffffffffffffffffffffffffffffffffffffffff167f17307eab39ab6107e8899845ad3d59bd9653f200f220920489ca2b5937696c31836040516111b591906119c6565b60405180910390a3505050565b6111cd848484610df0565b6111d9848484846113cf565b611218576040517f08c379a000000000000000000000000000000000000000000000000000000000815260040161120f9061260b565b60405180910390fd5b50505050565b60606040518060400160405280600781526020017f696670733a2f2f00000000000000000000000000000000000000000000000000815250905090565b606061126682610c4f565b600061127061121e565b9050600081511161129057604051806020016040528060008152506112bb565b8061129a84611556565b6040516020016112ab929190612306565b6040516020818303038152906040525b915050919050565b6112dd8282604051806020016040528060008152506116b6565b5050565b6112ea8261134e565b611329576040517f08c379a00000000000000000000000000000000000000000000000000000000081526004016113209061269d565b60405180910390fd5b806006600084815260200190815260200160002090816113499190612869565b505050565b60008073ffffffffffffffffffffffffffffffffffffffff166002600084815260200190815260200160002060009054906101000a900473ffffffffffffffffffffffffffffffffffffffff1673ffffffffffffffffffffffffffffffffffffffff1614159050919050565b6113c5838383611711565b505050565b505050565b60006113f08473ffffffffffffffffffffffffffffffffffffffff16611716565b15611549578373ffffffffffffffffffffffffffffffffffffffff1663150b7a02611419610c9a565b8786866040518563ffffffff1660e01b815260040161143b9493929190612990565b6020604051808303816000875af192505050801561147757506040513d601f19601f8201168201806040525081019061147491906129f1565b60015b6114f9573d80600081146114a7576040519150601f19603f3d011682016040523d82523d6000602084013e6114ac565b606091505b5060008151036114f1576040517f08c379a00000000000000000000000000000000000000000000000000000000081526004016114e89061260b565b60405180910390fd5b805181602001fd5b63150b7a0260e01b7bffffffffffffffffffffffffffffffffffffffffffffffffffffffff1916817bffffffffffffffffffffffffffffffffffffffffffffffffffffffff19161491505061154e565b600190505b949350505050565b60606000820361159d576040518060400160405280600181526020017f300000000000000000000000000000000000000000000000000000000000000081525090506116b1565b600082905060005b600082146115cf5780806115b89061238d565b915050600a826115c89190612a4d565b91506115a5565b60008167ffffffffffffffff8111156115eb576115ea611cde565b5b6040519080825280601f01601f19166020018201604052801561161d5781602001600182028036833780820191505090505b5090505b600085146116aa5760018261163691906124f9565b9150600a856116459190612a7e565b60306116519190612359565b60f81b81838151811061166757611666612aaf565b5b60200101907effffffffffffffffffffffffffffffffffffffffffffffffffffffffffffff1916908160001a905350600a856116a39190612a4d565b9450611621565b8093505050505b919050565b6116c08383611739565b6116cd60008484846113cf565b61170c576040517f08c379a00000000000000000000000000000000000000000000000000000000081526004016117039061260b565b60405180910390fd5b505050565b505050565b6000808273ffffffffffffffffffffffffffffffffffffffff163b119050919050565b600073ffffffffffffffffffffffffffffffffffffffff168273ffffffffffffffffffffffffffffffffffffffff16036117a8576040517f08c379a000000000000000000000000000000000000000000000000000000000815260040161179f90612b2a565b60405180910390fd5b6117b18161134e565b156117f1576040517f08c379a00000000000000000000000000000000000000000000000000000000081526004016117e890612b96565b60405180910390fd5b6117fd600083836113ba565b6001600360008473ffffffffffffffffffffffffffffffffffffffff1673ffffffffffffffffffffffffffffffffffffffff168152602001908152602001600020600082825461184d9190612359565b92505081905550816002600083815260200190815260200160002060006101000a81548173ffffffffffffffffffffffffffffffffffffffff021916908373ffffffffffffffffffffffffffffffffffffffff160217905550808273ffffffffffffffffffffffffffffffffffffffff16600073ffffffffffffffffffffffffffffffffffffffff167fddf252ad1be2c89b69c2b068fc378daa952ba7f163c4a11628f55a4df523b3ef60405160405180910390a461190e600083836113ca565b5050565b6000604051905090565b600080fd5b600080fd5b60007fffffffff0000000000000000000000000000000000000000000000000000000082169050919050565b61195b81611926565b811461196657600080fd5b50565b60008135905061197881611952565b92915050565b6000602082840312156119945761199361191c565b5b60006119a284828501611969565b91505092915050565b60008115159050919050565b6119c0816119ab565b82525050565b60006020820190506119db60008301846119b7565b92915050565b600081519050919050565b600082825260208201905092915050565b60005b83811015611a1b578082015181840152602081019050611a00565b60008484015250505050565b6000601f19601f8301169050919050565b6000611a43826119e1565b611a4d81856119ec565b9350611a5d8185602086016119fd565b611a6681611a27565b840191505092915050565b60006020820190508181036000830152611a8b8184611a38565b905092915050565b6000819050919050565b611aa681611a93565b8114611ab157600080fd5b50565b600081359050611ac381611a9d565b92915050565b600060208284031215611adf57611ade61191c565b5b6000611aed84828501611ab4565b91505092915050565b600073ffffffffffffffffffffffffffffffffffffffff82169050919050565b6000611b2182611af6565b9050919050565b611b3181611b16565b82525050565b6000602082019050611b4c6000830184611b28565b92915050565b611b5b81611b16565b8114611b6657600080fd5b50565b600081359050611b7881611b52565b92915050565b60008060408385031215611b9557611b9461191c565b5b6000611ba385828601611b69565b9250506020611bb485828601611ab4565b9150509250929050565b600080600060608486031215611bd757611bd661191c565b5b6000611be586828701611b69565b9350506020611bf686828701611b69565b9250506040611c0786828701611ab4565b9150509250925092565b611c1a81611a93565b82525050565b6000602082019050611c356000830184611c11565b92915050565b600060208284031215611c5157611c5061191c565b5b6000611c5f84828501611b69565b91505092915050565b611c71816119ab565b8114611c7c57600080fd5b50565b600081359050611c8e81611c68565b92915050565b60008060408385031215611cab57611caa61191c565b5b6000611cb985828601611b69565b9250506020611cca85828601611c7f565b9150509250929050565b600080fd5b600080fd5b7f4e487b7100000000000000000000000000000000000000000000000000000000600052604160045260246000fd5b611d1682611a27565b810181811067ffffffffffffffff82111715611d3557611d34611cde565b5b80604052505050565b6000611d48611912565b9050611d548282611d0d565b919050565b600067ffffffffffffffff821115611d7457611d73611cde565b5b611d7d82611a27565b9050602081019050919050565b82818337600083830152505050565b6000611dac611da784611d59565b611d3e565b905082815260208101848484011115611dc857611dc7611cd9565b5b611dd3848285611d8a565b509392505050565b600082601f830112611df057611def611cd4565b5b8135611e00848260208601611d99565b91505092915050565b60008060008060808587031215611e2357611e2261191c565b5b6000611e3187828801611b69565b9450506020611e4287828801611b69565b9350506040611e5387828801611ab4565b925050606085013567ffffffffffffffff811115611e7457611e73611921565b5b611e8087828801611ddb565b91505092959194509250565b600067ffffffffffffffff821115611ea757611ea6611cde565b5b611eb082611a27565b9050602081019050919050565b6000611ed0611ecb84611e8c565b611d3e565b905082815260208101848484011115611eec57611eeb611cd9565b5b611ef7848285611d8a565b509392505050565b600082601f830112611f1457611f13611cd4565b5b8135611f24848260208601611ebd565b91505092915050565b600060208284031215611f4357611f4261191c565b5b600082013567ffffffffffffffff811115611f6157611f60611921565b5b611f6d84828501611eff565b91505092915050565b60008060408385031215611f8d57611f8c61191c565b5b6000611f9b85828601611b69565b9250506020611fac85828601611b69565b9150509250929050565b7f4e487b7100000000000000000000000000000000000000000000000000000000600052602260045260246000fd5b60006002820490506001821680611ffd57607f821691505b6020821081036120105761200f611fb6565b5b50919050565b7f4552433732313a20617070726f76616c20746f2063757272656e74206f776e6560008201527f7200000000000000000000000000000000000000000000000000000000000000602082015250565b60006120726021836119ec565b915061207d82612016565b604082019050919050565b600060208201905081810360008301526120a181612065565b9050919050565b7f4552433732313a20617070726f76652063616c6c6572206973206e6f7420746f60008201527f6b656e206f776e6572206e6f7220617070726f76656420666f7220616c6c0000602082015250565b6000612104603e836119ec565b915061210f826120a8565b604082019050919050565b60006020820190508181036000830152612133816120f7565b9050919050565b7f4552433732313a2063616c6c6572206973206e6f7420746f6b656e206f776e6560008201527f72206e6f7220617070726f766564000000000000000000000000000000000000602082015250565b6000612196602e836119ec565b91506121a18261213a565b604082019050919050565b600060208201905081810360008301526121c581612189565b9050919050565b7f4552433732313a20696e76616c696420746f6b656e2049440000000000000000600082015250565b60006122026018836119ec565b915061220d826121cc565b602082019050919050565b60006020820190508181036000830152612231816121f5565b9050919050565b7f4552433732313a2061646472657373207a65726f206973206e6f74206120766160008201527f6c6964206f776e65720000000000000000000000000000000000000000000000602082015250565b60006122946029836119ec565b915061229f82612238565b604082019050919050565b600060208201905081810360008301526122c381612287565b9050919050565b600081905092915050565b60006122e0826119e1565b6122ea81856122ca565b93506122fa8185602086016119fd565b80840191505092915050565b600061231282856122d5565b915061231e82846122d5565b91508190509392505050565b7f4e487b7100000000000000000000000000000000000000000000000000000000600052601160045260246000fd5b600061236482611a93565b915061236f83611a93565b92508282019050808211156123875761238661232a565b5b92915050565b600061239882611a93565b91507fffffffffffffffffffffffffffffffffffffffffffffffffffffffffffffffff82036123ca576123c961232a565b5b600182019050919050565b7f4552433732313a207472616e736665722066726f6d20696e636f72726563742060008201527f6f776e6572000000000000000000000000000000000000000000000000000000602082015250565b60006124316025836119ec565b915061243c826123d5565b604082019050919050565b6000602082019050818103600083015261246081612424565b9050919050565b7f4552433732313a207472616e7366657220746f20746865207a65726f2061646460008201527f7265737300000000000000000000000000000000000000000000000000000000602082015250565b60006124c36024836119ec565b91506124ce82612467565b604082019050919050565b600060208201905081810360008301526124f2816124b6565b9050919050565b600061250482611a93565b915061250f83611a93565b92508282039050818111156125275761252661232a565b5b92915050565b7f4552433732313a20617070726f766520746f2063616c6c657200000000000000600082015250565b60006125636019836119ec565b915061256e8261252d565b602082019050919050565b6000602082019050818103600083015261259281612556565b9050919050565b7f4552433732313a207472616e7366657220746f206e6f6e20455243373231526560008201527f63656976657220696d706c656d656e7465720000000000000000000000000000602082015250565b60006125f56032836119ec565b915061260082612599565b604082019050919050565b60006020820190508181036000830152612624816125e8565b9050919050565b7f45524337323155524953746f726167653a2055524920736574206f66206e6f6e60008201527f6578697374656e7420746f6b656e000000000000000000000000000000000000602082015250565b6000612687602e836119ec565b91506126928261262b565b604082019050919050565b600060208201905081810360008301526126b68161267a565b9050919050565b60008190508160005260206000209050919050565b60006020601f8301049050919050565b600082821b905092915050565b60006008830261271f7fffffffffffffffffffffffffffffffffffffffffffffffffffffffffffffffff826126e2565b61272986836126e2565b95508019841693508086168417925050509392505050565b6000819050919050565b600061276661276161275c84611a93565b612741565b611a93565b9050919050565b6000819050919050565b6127808361274b565b61279461278c8261276d565b8484546126ef565b825550505050565b600090565b6127a961279c565b6127b4818484612777565b505050565b5b818110156127d8576127cd6000826127a1565b6001810190506127ba565b5050565b601f82111561281d576127ee816126bd565b6127f7846126d2565b81016020851015612806578190505b61281a612812856126d2565b8301826127b9565b50505b505050565b600082821c905092915050565b600061284060001984600802612822565b1980831691505092915050565b6000612859838361282f565b9150826002028217905092915050565b612872826119e1565b67ffffffffffffffff81111561288b5761288a611cde565b5b6128958254611fe5565b6128a08282856127dc565b600060209050601f8311600181146128d357600084156128c1578287015190505b6128cb858261284d565b865550612933565b601f1984166128e1866126bd565b60005b82811015612909578489015182556001820191506020850194506020810190506128e4565b868310156129265784890151612922601f89168261282f565b8355505b6001600288020188555050505b505050505050565b600081519050919050565b600082825260208201905092915050565b60006129628261293b565b61296c8185612946565b935061297c8185602086016119fd565b61298581611a27565b840191505092915050565b60006080820190506129a56000830187611b28565b6129b26020830186611b28565b6129bf6040830185611c11565b81810360608301526129d18184612957565b905095945050505050565b6000815190506129eb81611952565b92915050565b600060208284031215612a0757612a0661191c565b5b6000612a15848285016129dc565b91505092915050565b7f4e487b7100000000000000000000000000000000000000000000000000000000600052601260045260246000fd5b6000612a5882611a93565b9150612a6383611a93565b925082612a7357612a72612a1e565b5b828204905092915050565b6000612a8982611a93565b9150612a9483611a93565b925082612aa457612aa3612a1e565b5b828206905092915050565b7f4e487b7100000000000000000000000000000000000000000000000000000000600052603260045260246000fd5b7f4552433732313a206d696e7420746f20746865207a65726f2061646472657373600082015250565b6000612b146020836119ec565b9150612b1f82612ade565b602082019050919050565b60006020820190508181036000830152612b4381612b07565b9050919050565b7f4552433732313a20746f6b656e20616c7265616479206d696e74656400000000600082015250565b6000612b80601c836119ec565b9150612b8b82612b4a565b602082019050919050565b60006020820190508181036000830152612baf81612b73565b905091905056fea26469706673582212200a6b56557dbe9dd186eeec9786b43251307de141b17f583cac4b9383a9e8789564736f6c63430008110033",
  "immutableReferences": {},
  "source": "//SPDX-License-Identifier: MIT\npragma solidity >=0.7.0 <0.9.0;\n\nimport \"@openzeppelin/contracts/token/ERC721/extensions/ERC721URIStorage.sol\";\n\ncontract AvatarRendererLite is ERC721URIStorage {\n    using Strings for uint256;\n\n    uint256 public counterSupply = 0;\n    bool public paused = true;\n\n    constructor(string memory _name, string memory _symbol)\n        ERC721(_name, _symbol)\n    {}\n\n    // public\n    function mint(string memory _metadataIPFSHASH)  public payable returns (uint256) {\n\n        _safeMint(msg.sender, counterSupply + 1);\n\n        _setTokenURI(counterSupply + 1, _metadataIPFSHASH);\n\n        counterSupply++;\n\n        return counterSupply;\n    }\n\n    function _beforeTokenTransfer(\n        address from,\n        address to,\n        uint256 tokenId\n    ) internal override(ERC721) {\n        super._beforeTokenTransfer(from, to, tokenId);\n    }\n\n    function _baseURI() internal pure override returns (string memory) {\n        return \"ifps://\";\n    }\n}\n",
  "sourcePath": "/home/romain/code/avatarRenderer/contractAvatarRenderer/contracts/AvatarRendererLite.sol",
  "compiler": {
    "name": "solc",
    "version": "0.8.17+commit.8df45f5f.Emscripten.clang"
  },
  "schemaVersion": "3.4.10",
  "updatedAt": "2022-10-14T13:09:39.452Z",
  "networkType": "ethereum",
  "devdoc": {
    "kind": "dev",
    "methods": {
      "approve(address,uint256)": {
        "details": "See {IERC721-approve}."
      },
      "balanceOf(address)": {
        "details": "See {IERC721-balanceOf}."
      },
      "getApproved(uint256)": {
        "details": "See {IERC721-getApproved}."
      },
      "isApprovedForAll(address,address)": {
        "details": "See {IERC721-isApprovedForAll}."
      },
      "name()": {
        "details": "See {IERC721Metadata-name}."
      },
      "ownerOf(uint256)": {
        "details": "See {IERC721-ownerOf}."
      },
      "safeTransferFrom(address,address,uint256)": {
        "details": "See {IERC721-safeTransferFrom}."
      },
      "safeTransferFrom(address,address,uint256,bytes)": {
        "details": "See {IERC721-safeTransferFrom}."
      },
      "setApprovalForAll(address,bool)": {
        "details": "See {IERC721-setApprovalForAll}."
      },
      "supportsInterface(bytes4)": {
        "details": "See {IERC165-supportsInterface}."
      },
      "symbol()": {
        "details": "See {IERC721Metadata-symbol}."
      },
      "tokenURI(uint256)": {
        "details": "See {IERC721Metadata-tokenURI}."
      },
      "transferFrom(address,address,uint256)": {
        "details": "See {IERC721-transferFrom}."
      }
    },
    "version": 1
  },
  "userdoc": {
    "kind": "user",
    "methods": {},
    "version": 1
  }
}