{
  "contractName": "AvatarRenderer",
  "abi": [
    {
      "inputs": [
        {
          "internalType": "string",
          "name": "_name",
          "type": "string"
        },
        {
          "internalType": "string",
          "name": "_symbol",
          "type": "string"
        }
      ],
      "stateMutability": "nonpayable",
      "type": "constructor"
    },
    {
      "anonymous": false,
      "inputs": [
        {
          "indexed": true,
          "internalType": "address",
          "name": "owner",
          "type": "address"
        },
        {
          "indexed": true,
          "internalType": "address",
          "name": "approved",
          "type": "address"
        },
        {
          "indexed": true,
          "internalType": "uint256",
          "name": "tokenId",
          "type": "uint256"
        }
      ],
      "name": "Approval",
      "type": "event"
    },
    {
      "anonymous": false,
      "inputs": [
        {
          "indexed": true,
          "internalType": "address",
          "name": "owner",
          "type": "address"
        },
        {
          "indexed": true,
          "internalType": "address",
          "name": "operator",
          "type": "address"
        },
        {
          "indexed": false,
          "internalType": "bool",
          "name": "approved",
          "type": "bool"
        }
      ],
      "name": "ApprovalForAll",
      "type": "event"
    },
    {
      "anonymous": false,
      "inputs": [
        {
          "indexed": true,
          "internalType": "address",
          "name": "previousOwner",
          "type": "address"
        },
        {
          "indexed": true,
          "internalType": "address",
          "name": "newOwner",
          "type": "address"
        }
      ],
      "name": "OwnershipTransferred",
      "type": "event"
    },
    {
      "anonymous": false,
      "inputs": [
        {
          "indexed": true,
          "internalType": "address",
          "name": "from",
          "type": "address"
        },
        {
          "indexed": true,
          "internalType": "address",
          "name": "to",
          "type": "address"
        },
        {
          "indexed": true,
          "internalType": "uint256",
          "name": "tokenId",
          "type": "uint256"
        }
      ],
      "name": "Transfer",
      "type": "event"
    },
    {
      "inputs": [
        {
          "internalType": "address",
          "name": "to",
          "type": "address"
        },
        {
          "internalType": "uint256",
          "name": "tokenId",
          "type": "uint256"
        }
      ],
      "name": "approve",
      "outputs": [],
      "stateMutability": "nonpayable",
      "type": "function"
    },
    {
      "inputs": [
        {
          "internalType": "address",
          "name": "owner",
          "type": "address"
        }
      ],
      "name": "balanceOf",
      "outputs": [
        {
          "internalType": "uint256",
          "name": "",
          "type": "uint256"
        }
      ],
      "stateMutability": "view",
      "type": "function"
    },
    {
      "inputs": [],
      "name": "cost",
      "outputs": [
        {
          "internalType": "uint256",
          "name": "",
          "type": "uint256"
        }
      ],
      "stateMutability": "view",
      "type": "function"
    },
    {
      "inputs": [],
      "name": "counterSupply",
      "outputs": [
        {
          "internalType": "uint256",
          "name": "",
          "type": "uint256"
        }
      ],
      "stateMutability": "view",
      "type": "function"
    },
    {
      "inputs": [
        {
          "internalType": "uint256",
          "name": "tokenId",
          "type": "uint256"
        }
      ],
      "name": "getApproved",
      "outputs": [
        {
          "internalType": "address",
          "name": "",
          "type": "address"
        }
      ],
      "stateMutability": "view",
      "type": "function"
    },
    {
      "inputs": [
        {
          "internalType": "address",
          "name": "owner",
          "type": "address"
        },
        {
          "internalType": "address",
          "name": "operator",
          "type": "address"
        }
      ],
      "name": "isApprovedForAll",
      "outputs": [
        {
          "internalType": "bool",
          "name": "",
          "type": "bool"
        }
      ],
      "stateMutability": "view",
      "type": "function"
    },
    {
      "inputs": [],
      "name": "maxSupply",
      "outputs": [
        {
          "internalType": "uint256",
          "name": "",
          "type": "uint256"
        }
      ],
      "stateMutability": "view",
      "type": "function"
    },
    {
      "inputs": [],
      "name": "name",
      "outputs": [
        {
          "internalType": "string",
          "name": "",
          "type": "string"
        }
      ],
      "stateMutability": "view",
      "type": "function"
    },
    {
      "inputs": [],
      "name": "owner",
      "outputs": [
        {
          "internalType": "address",
          "name": "",
          "type": "address"
        }
      ],
      "stateMutability": "view",
      "type": "function"
    },
    {
      "inputs": [
        {
          "internalType": "uint256",
          "name": "tokenId",
          "type": "uint256"
        }
      ],
      "name": "ownerOf",
      "outputs": [
        {
          "internalType": "address",
          "name": "",
          "type": "address"
        }
      ],
      "stateMutability": "view",
      "type": "function"
    },
    {
      "inputs": [],
      "name": "paused",
      "outputs": [
        {
          "internalType": "bool",
          "name": "",
          "type": "bool"
        }
      ],
      "stateMutability": "view",
      "type": "function"
    },
    {
      "inputs": [],
      "name": "renounceOwnership",
      "outputs": [],
      "stateMutability": "nonpayable",
      "type": "function"
    },
    {
      "inputs": [
        {
          "internalType": "address",
          "name": "from",
          "type": "address"
        },
        {
          "internalType": "address",
          "name": "to",
          "type": "address"
        },
        {
          "internalType": "uint256",
          "name": "tokenId",
          "type": "uint256"
        }
      ],
      "name": "safeTransferFrom",
      "outputs": [],
      "stateMutability": "nonpayable",
      "type": "function"
    },
    {
      "inputs": [
        {
          "internalType": "address",
          "name": "from",
          "type": "address"
        },
        {
          "internalType": "address",
          "name": "to",
          "type": "address"
        },
        {
          "internalType": "uint256",
          "name": "tokenId",
          "type": "uint256"
        },
        {
          "internalType": "bytes",
          "name": "data",
          "type": "bytes"
        }
      ],
      "name": "safeTransferFrom",
      "outputs": [],
      "stateMutability": "nonpayable",
      "type": "function"
    },
    {
      "inputs": [
        {
          "internalType": "address",
          "name": "operator",
          "type": "address"
        },
        {
          "internalType": "bool",
          "name": "approved",
          "type": "bool"
        }
      ],
      "name": "setApprovalForAll",
      "outputs": [],
      "stateMutability": "nonpayable",
      "type": "function"
    },
    {
      "inputs": [],
      "name": "symbol",
      "outputs": [
        {
          "internalType": "string",
          "name": "",
          "type": "string"
        }
      ],
      "stateMutability": "view",
      "type": "function"
    },
    {
      "inputs": [
        {
          "internalType": "uint256",
          "name": "index",
          "type": "uint256"
        }
      ],
      "name": "tokenByIndex",
      "outputs": [
        {
          "internalType": "uint256",
          "name": "",
          "type": "uint256"
        }
      ],
      "stateMutability": "view",
      "type": "function"
    },
    {
      "inputs": [
        {
          "internalType": "address",
          "name": "owner",
          "type": "address"
        },
        {
          "internalType": "uint256",
          "name": "index",
          "type": "uint256"
        }
      ],
      "name": "tokenOfOwnerByIndex",
      "outputs": [
        {
          "internalType": "uint256",
          "name": "",
          "type": "uint256"
        }
      ],
      "stateMutability": "view",
      "type": "function"
    },
    {
      "inputs": [],
      "name": "totalSupply",
      "outputs": [
        {
          "internalType": "uint256",
          "name": "",
          "type": "uint256"
        }
      ],
      "stateMutability": "view",
      "type": "function"
    },
    {
      "inputs": [
        {
          "internalType": "address",
          "name": "from",
          "type": "address"
        },
        {
          "internalType": "address",
          "name": "to",
          "type": "address"
        },
        {
          "internalType": "uint256",
          "name": "tokenId",
          "type": "uint256"
        }
      ],
      "name": "transferFrom",
      "outputs": [],
      "stateMutability": "nonpayable",
      "type": "function"
    },
    {
      "inputs": [
        {
          "internalType": "address",
          "name": "newOwner",
          "type": "address"
        }
      ],
      "name": "transferOwnership",
      "outputs": [],
      "stateMutability": "nonpayable",
      "type": "function"
    },
    {
      "inputs": [
        {
          "internalType": "string",
          "name": "_metadataURI",
          "type": "string"
        }
      ],
      "name": "mint",
      "outputs": [
        {
          "internalType": "uint256",
          "name": "",
          "type": "uint256"
        }
      ],
      "stateMutability": "payable",
      "type": "function"
    },
    {
      "inputs": [
        {
          "internalType": "address",
          "name": "_owner",
          "type": "address"
        }
      ],
      "name": "walletOfOwner",
      "outputs": [
        {
          "internalType": "uint256[]",
          "name": "",
          "type": "uint256[]"
        }
      ],
      "stateMutability": "view",
      "type": "function"
    },
    {
      "inputs": [
        {
          "internalType": "uint256",
          "name": "_newCost",
          "type": "uint256"
        }
      ],
      "name": "setCost",
      "outputs": [],
      "stateMutability": "nonpayable",
      "type": "function"
    },
    {
      "inputs": [
        {
          "internalType": "uint256",
          "name": "_newMaxSupply",
          "type": "uint256"
        }
      ],
      "name": "setMaxSupply",
      "outputs": [],
      "stateMutability": "nonpayable",
      "type": "function"
    },
    {
      "inputs": [
        {
          "internalType": "bool",
          "name": "_state",
          "type": "bool"
        }
      ],
      "name": "pause",
      "outputs": [],
      "stateMutability": "nonpayable",
      "type": "function"
    },
    {
      "inputs": [
        {
          "internalType": "uint256",
          "name": "tokenId",
          "type": "uint256"
        }
      ],
      "name": "tokenURI",
      "outputs": [
        {
          "internalType": "string",
          "name": "",
          "type": "string"
        }
      ],
      "stateMutability": "view",
      "type": "function"
    },
    {
      "inputs": [
        {
          "internalType": "bytes4",
          "name": "interfaceId",
          "type": "bytes4"
        }
      ],
      "name": "supportsInterface",
      "outputs": [
        {
          "internalType": "bool",
          "name": "",
          "type": "bool"
        }
      ],
      "stateMutability": "view",
      "type": "function"
    }
  ],
  "bytecode": "0x608060405267011c37937e080000600c55612710600d556000600e556001600f60006101000a81548160ff0219169083151502179055503480156200004357600080fd5b50604051620045013803806200450183398181016040528101906200006991906200031a565b818181600090816200007c9190620005ea565b5080600190816200008e9190620005ea565b505050620000b1620000a5620000b960201b60201c565b620000c160201b60201c565b5050620006d1565b600033905090565b6000600660009054906101000a900473ffffffffffffffffffffffffffffffffffffffff16905081600660006101000a81548173ffffffffffffffffffffffffffffffffffffffff021916908373ffffffffffffffffffffffffffffffffffffffff1602179055508173ffffffffffffffffffffffffffffffffffffffff168173ffffffffffffffffffffffffffffffffffffffff167f8be0079c531659141344cd1fd0a4f28419497f9722a3daafe3b4186f6b6457e060405160405180910390a35050565b6000604051905090565b600080fd5b600080fd5b600080fd5b600080fd5b6000601f19601f8301169050919050565b7f4e487b7100000000000000000000000000000000000000000000000000000000600052604160045260246000fd5b620001f082620001a5565b810181811067ffffffffffffffff82111715620002125762000211620001b6565b5b80604052505050565b60006200022762000187565b9050620002358282620001e5565b919050565b600067ffffffffffffffff821115620002585762000257620001b6565b5b6200026382620001a5565b9050602081019050919050565b60005b838110156200029057808201518184015260208101905062000273565b60008484015250505050565b6000620002b3620002ad846200023a565b6200021b565b905082815260208101848484011115620002d257620002d1620001a0565b5b620002df84828562000270565b509392505050565b600082601f830112620002ff57620002fe6200019b565b5b8151620003118482602086016200029c565b91505092915050565b6000806040838503121562000334576200033362000191565b5b600083015167ffffffffffffffff81111562000355576200035462000196565b5b6200036385828601620002e7565b925050602083015167ffffffffffffffff81111562000387576200038662000196565b5b6200039585828601620002e7565b9150509250929050565b600081519050919050565b7f4e487b7100000000000000000000000000000000000000000000000000000000600052602260045260246000fd5b60006002820490506001821680620003f257607f821691505b602082108103620004085762000407620003aa565b5b50919050565b60008190508160005260206000209050919050565b60006020601f8301049050919050565b600082821b905092915050565b600060088302620004727fffffffffffffffffffffffffffffffffffffffffffffffffffffffffffffffff8262000433565b6200047e868362000433565b95508019841693508086168417925050509392505050565b6000819050919050565b6000819050919050565b6000620004cb620004c5620004bf8462000496565b620004a0565b62000496565b9050919050565b6000819050919050565b620004e783620004aa565b620004ff620004f682620004d2565b84845462000440565b825550505050565b600090565b6200051662000507565b62000523818484620004dc565b505050565b5b818110156200054b576200053f6000826200050c565b60018101905062000529565b5050565b601f8211156200059a5762000564816200040e565b6200056f8462000423565b810160208510156200057f578190505b620005976200058e8562000423565b83018262000528565b50505b505050565b600082821c905092915050565b6000620005bf600019846008026200059f565b1980831691505092915050565b6000620005da8383620005ac565b9150826002028217905092915050565b620005f5826200039f565b67ffffffffffffffff811115620006115762000610620001b6565b5b6200061d8254620003d9565b6200062a8282856200054f565b600060209050601f8311600181146200066257600084156200064d578287015190505b620006598582620005cc565b865550620006c9565b601f19841662000672866200040e565b60005b828110156200069c5784890151825560018201915060208501945060208101905062000675565b86831015620006bc5784890151620006b8601f891682620005ac565b8355505b6001600288020188555050505b505050505050565b613e2080620006e16000396000f3fe6080604052600436106101b75760003560e01c80635c975abb116100ec578063a22cb4651161008a578063d5abeb0111610064578063d5abeb0114610630578063d85d3d271461065b578063e985e9c51461068b578063f2fde38b146106c8576101b7565b8063a22cb465146105a1578063b88d4fde146105ca578063c87b56dd146105f3576101b7565b806370a08231116100c657806370a08231146104f7578063715018a6146105345780638da5cb5b1461054b57806395d89b4114610576576101b7565b80635c975abb146104665780636352211e146104915780636f8b44b0146104ce576101b7565b806323b872dd1161015957806342842e0e1161013357806342842e0e1461039a578063438b6300146103c357806344a0d68a146104005780634f6ccce714610429576101b7565b806323b872dd146103095780632f745c59146103325780633486ced31461036f576101b7565b8063081812fc11610195578063081812fc1461024d578063095ea7b31461028a57806313faede6146102b357806318160ddd146102de576101b7565b806301ffc9a7146101bc57806302329a29146101f957806306fdde0314610222575b600080fd5b3480156101c857600080fd5b506101e360048036038101906101de9190612620565b6106f1565b6040516101f09190612668565b60405180910390f35b34801561020557600080fd5b50610220600480360381019061021b91906126af565b610703565b005b34801561022e57600080fd5b50610237610728565b604051610244919061276c565b60405180910390f35b34801561025957600080fd5b50610274600480360381019061026f91906127c4565b6107ba565b6040516102819190612832565b60405180910390f35b34801561029657600080fd5b506102b160048036038101906102ac9190612879565b610800565b005b3480156102bf57600080fd5b506102c8610917565b6040516102d591906128c8565b60405180910390f35b3480156102ea57600080fd5b506102f361091d565b60405161030091906128c8565b60405180910390f35b34801561031557600080fd5b50610330600480360381019061032b91906128e3565b61092a565b005b34801561033e57600080fd5b5061035960048036038101906103549190612879565b61098a565b60405161036691906128c8565b60405180910390f35b34801561037b57600080fd5b50610384610a2f565b60405161039191906128c8565b60405180910390f35b3480156103a657600080fd5b506103c160048036038101906103bc91906128e3565b610a35565b005b3480156103cf57600080fd5b506103ea60048036038101906103e59190612936565b610a55565b6040516103f79190612a21565b60405180910390f35b34801561040c57600080fd5b50610427600480360381019061042291906127c4565b610b03565b005b34801561043557600080fd5b50610450600480360381019061044b91906127c4565b610b15565b60405161045d91906128c8565b60405180910390f35b34801561047257600080fd5b5061047b610b86565b6040516104889190612668565b60405180910390f35b34801561049d57600080fd5b506104b860048036038101906104b391906127c4565b610b99565b6040516104c59190612832565b60405180910390f35b3480156104da57600080fd5b506104f560048036038101906104f091906127c4565b610c4a565b005b34801561050357600080fd5b5061051e60048036038101906105199190612936565b610c5c565b60405161052b91906128c8565b60405180910390f35b34801561054057600080fd5b50610549610d13565b005b34801561055757600080fd5b50610560610d27565b60405161056d9190612832565b60405180910390f35b34801561058257600080fd5b5061058b610d51565b604051610598919061276c565b60405180910390f35b3480156105ad57600080fd5b506105c860048036038101906105c39190612a43565b610de3565b005b3480156105d657600080fd5b506105f160048036038101906105ec9190612bb8565b610df9565b005b3480156105ff57600080fd5b5061061a600480360381019061061591906127c4565b610e5b565b604051610627919061276c565b60405180910390f35b34801561063c57600080fd5b50610645610e6d565b60405161065291906128c8565b60405180910390f35b61067560048036038101906106709190612cdc565b610e73565b60405161068291906128c8565b60405180910390f35b34801561069757600080fd5b506106b260048036038101906106ad9190612d25565b610fcc565b6040516106bf9190612668565b60405180910390f35b3480156106d457600080fd5b506106ef60048036038101906106ea9190612936565b611060565b005b60006106fc826110e3565b9050919050565b61070b61115d565b80600f60006101000a81548160ff02191690831515021790555050565b60606000805461073790612d94565b80601f016020809104026020016040519081016040528092919081815260200182805461076390612d94565b80156107b05780601f10610785576101008083540402835291602001916107b0565b820191906000526020600020905b81548152906001019060200180831161079357829003601f168201915b5050505050905090565b60006107c5826111db565b6004600083815260200190815260200160002060009054906101000a900473ffffffffffffffffffffffffffffffffffffffff169050919050565b600061080b82610b99565b90508073ffffffffffffffffffffffffffffffffffffffff168373ffffffffffffffffffffffffffffffffffffffff160361087b576040517f08c379a000000000000000000000000000000000000000000000000000000000815260040161087290612e37565b60405180910390fd5b8073ffffffffffffffffffffffffffffffffffffffff1661089a611226565b73ffffffffffffffffffffffffffffffffffffffff1614806108c957506108c8816108c3611226565b610fcc565b5b610908576040517f08c379a00000000000000000000000000000000000000000000000000000000081526004016108ff90612ec9565b60405180910390fd5b610912838361122e565b505050565b600c5481565b6000600980549050905090565b61093b610935611226565b826112e7565b61097a576040517f08c379a000000000000000000000000000000000000000000000000000000000815260040161097190612f5b565b60405180910390fd5b61098583838361137c565b505050565b600061099583610c5c565b82106109d6576040517f08c379a00000000000000000000000000000000000000000000000000000000081526004016109cd90612fed565b60405180910390fd5b600760008473ffffffffffffffffffffffffffffffffffffffff1673ffffffffffffffffffffffffffffffffffffffff168152602001908152602001600020600083815260200190815260200160002054905092915050565b600e5481565b610a5083838360405180602001604052806000815250610df9565b505050565b60606000610a6283610c5c565b905060008167ffffffffffffffff811115610a8057610a7f612a8d565b5b604051908082528060200260200182016040528015610aae5781602001602082028036833780820191505090505b50905060005b82811015610af857610ac6858261098a565b828281518110610ad957610ad861300d565b5b6020026020010181815250508080610af09061306b565b915050610ab4565b508092505050919050565b610b0b61115d565b80600c8190555050565b6000610b1f61091d565b8210610b60576040517f08c379a0000000000000000000000000000000000000000000000000000000008152600401610b5790613125565b60405180910390fd5b60098281548110610b7457610b7361300d565b5b90600052602060002001549050919050565b600f60009054906101000a900460ff1681565b6000806002600084815260200190815260200160002060009054906101000a900473ffffffffffffffffffffffffffffffffffffffff169050600073ffffffffffffffffffffffffffffffffffffffff168173ffffffffffffffffffffffffffffffffffffffff1603610c41576040517f08c379a0000000000000000000000000000000000000000000000000000000008152600401610c3890613191565b60405180910390fd5b80915050919050565b610c5261115d565b80600d8190555050565b60008073ffffffffffffffffffffffffffffffffffffffff168273ffffffffffffffffffffffffffffffffffffffff1603610ccc576040517f08c379a0000000000000000000000000000000000000000000000000000000008152600401610cc390613223565b60405180910390fd5b600360008373ffffffffffffffffffffffffffffffffffffffff1673ffffffffffffffffffffffffffffffffffffffff168152602001908152602001600020549050919050565b610d1b61115d565b610d2560006115e2565b565b6000600660009054906101000a900473ffffffffffffffffffffffffffffffffffffffff16905090565b606060018054610d6090612d94565b80601f0160208091040260200160405190810160405280929190818152602001828054610d8c90612d94565b8015610dd95780601f10610dae57610100808354040283529160200191610dd9565b820191906000526020600020905b815481529060010190602001808311610dbc57829003601f168201915b5050505050905090565b610df5610dee611226565b83836116a8565b5050565b610e0a610e04611226565b836112e7565b610e49576040517f08c379a0000000000000000000000000000000000000000000000000000000008152600401610e4090612f5b565b60405180910390fd5b610e5584848484611814565b50505050565b6060610e6682611870565b9050919050565b600d5481565b600080610e7e61091d565b9050600f60009054906101000a900460ff1615610ed0576040517f08c379a0000000000000000000000000000000000000000000000000000000008152600401610ec7906132b5565b60405180910390fd5b600d54600182610ee091906132d5565b1115610f21576040517f08c379a0000000000000000000000000000000000000000000000000000000008152600401610f189061337b565b60405180910390fd5b600c54341015600c54604051602001610f3a9190613485565b60405160208183030381529060405290610f8a576040517f08c379a0000000000000000000000000000000000000000000000000000000008152600401610f81919061276c565b60405180910390fd5b50610fa133600183610f9c91906132d5565b611982565b610fb7600182610fb191906132d5565b846119a0565b600181610fc491906132d5565b915050919050565b6000600560008473ffffffffffffffffffffffffffffffffffffffff1673ffffffffffffffffffffffffffffffffffffffff16815260200190815260200160002060008373ffffffffffffffffffffffffffffffffffffffff1673ffffffffffffffffffffffffffffffffffffffff16815260200190815260200160002060009054906101000a900460ff16905092915050565b61106861115d565b600073ffffffffffffffffffffffffffffffffffffffff168173ffffffffffffffffffffffffffffffffffffffff16036110d7576040517f08c379a00000000000000000000000000000000000000000000000000000000081526004016110ce90613528565b60405180910390fd5b6110e0816115e2565b50565b60007f780e9d63000000000000000000000000000000000000000000000000000000007bffffffffffffffffffffffffffffffffffffffffffffffffffffffff1916827bffffffffffffffffffffffffffffffffffffffffffffffffffffffff19161480611156575061115582611a0d565b5b9050919050565b611165611226565b73ffffffffffffffffffffffffffffffffffffffff16611183610d27565b73ffffffffffffffffffffffffffffffffffffffff16146111d9576040517f08c379a00000000000000000000000000000000000000000000000000000000081526004016111d090613594565b60405180910390fd5b565b6111e481611aef565b611223576040517f08c379a000000000000000000000000000000000000000000000000000000000815260040161121a90613191565b60405180910390fd5b50565b600033905090565b816004600083815260200190815260200160002060006101000a81548173ffffffffffffffffffffffffffffffffffffffff021916908373ffffffffffffffffffffffffffffffffffffffff160217905550808273ffffffffffffffffffffffffffffffffffffffff166112a183610b99565b73ffffffffffffffffffffffffffffffffffffffff167f8c5be1e5ebec7d5bd14f71427d1e84f3dd0314c0f7b2291e5b200ac8c7c3b92560405160405180910390a45050565b6000806112f383610b99565b90508073ffffffffffffffffffffffffffffffffffffffff168473ffffffffffffffffffffffffffffffffffffffff16148061133557506113348185610fcc565b5b8061137357508373ffffffffffffffffffffffffffffffffffffffff1661135b846107ba565b73ffffffffffffffffffffffffffffffffffffffff16145b91505092915050565b8273ffffffffffffffffffffffffffffffffffffffff1661139c82610b99565b73ffffffffffffffffffffffffffffffffffffffff16146113f2576040517f08c379a00000000000000000000000000000000000000000000000000000000081526004016113e990613626565b60405180910390fd5b600073ffffffffffffffffffffffffffffffffffffffff168273ffffffffffffffffffffffffffffffffffffffff1603611461576040517f08c379a0000000000000000000000000000000000000000000000000000000008152600401611458906136b8565b60405180910390fd5b61146c838383611b5b565b61147760008261122e565b6001600360008573ffffffffffffffffffffffffffffffffffffffff1673ffffffffffffffffffffffffffffffffffffffff16815260200190815260200160002060008282546114c791906136d8565b925050819055506001600360008473ffffffffffffffffffffffffffffffffffffffff1673ffffffffffffffffffffffffffffffffffffffff168152602001908152602001600020600082825461151e91906132d5565b92505081905550816002600083815260200190815260200160002060006101000a81548173ffffffffffffffffffffffffffffffffffffffff021916908373ffffffffffffffffffffffffffffffffffffffff160217905550808273ffffffffffffffffffffffffffffffffffffffff168473ffffffffffffffffffffffffffffffffffffffff167fddf252ad1be2c89b69c2b068fc378daa952ba7f163c4a11628f55a4df523b3ef60405160405180910390a46115dd838383611b6b565b505050565b6000600660009054906101000a900473ffffffffffffffffffffffffffffffffffffffff16905081600660006101000a81548173ffffffffffffffffffffffffffffffffffffffff021916908373ffffffffffffffffffffffffffffffffffffffff1602179055508173ffffffffffffffffffffffffffffffffffffffff168173ffffffffffffffffffffffffffffffffffffffff167f8be0079c531659141344cd1fd0a4f28419497f9722a3daafe3b4186f6b6457e060405160405180910390a35050565b8173ffffffffffffffffffffffffffffffffffffffff168373ffffffffffffffffffffffffffffffffffffffff1603611716576040517f08c379a000000000000000000000000000000000000000000000000000000000815260040161170d90613758565b60405180910390fd5b80600560008573ffffffffffffffffffffffffffffffffffffffff1673ffffffffffffffffffffffffffffffffffffffff16815260200190815260200160002060008473ffffffffffffffffffffffffffffffffffffffff1673ffffffffffffffffffffffffffffffffffffffff16815260200190815260200160002060006101000a81548160ff0219169083151502179055508173ffffffffffffffffffffffffffffffffffffffff168373ffffffffffffffffffffffffffffffffffffffff167f17307eab39ab6107e8899845ad3d59bd9653f200f220920489ca2b5937696c31836040516118079190612668565b60405180910390a3505050565b61181f84848461137c565b61182b84848484611b70565b61186a576040517f08c379a0000000000000000000000000000000000000000000000000000000008152600401611861906137ea565b60405180910390fd5b50505050565b606061187b826111db565b6000600b6000848152602001908152602001600020805461189b90612d94565b80601f01602080910402602001604051908101604052809291908181526020018280546118c790612d94565b80156119145780601f106118e957610100808354040283529160200191611914565b820191906000526020600020905b8154815290600101906020018083116118f757829003601f168201915b505050505090506000611925611cf7565b9050600081510361193a57819250505061197d565b60008251111561196f57808260405160200161195792919061383b565b6040516020818303038152906040529250505061197d565b61197884611d0e565b925050505b919050565b61199c828260405180602001604052806000815250611d76565b5050565b6119a982611aef565b6119e8576040517f08c379a00000000000000000000000000000000000000000000000000000000081526004016119df906138d1565b60405180910390fd5b80600b60008481526020019081526020016000209081611a089190613a9d565b505050565b60007f80ac58cd000000000000000000000000000000000000000000000000000000007bffffffffffffffffffffffffffffffffffffffffffffffffffffffff1916827bffffffffffffffffffffffffffffffffffffffffffffffffffffffff19161480611ad857507f5b5e139f000000000000000000000000000000000000000000000000000000007bffffffffffffffffffffffffffffffffffffffffffffffffffffffff1916827bffffffffffffffffffffffffffffffffffffffffffffffffffffffff1916145b80611ae85750611ae782611dd1565b5b9050919050565b60008073ffffffffffffffffffffffffffffffffffffffff166002600084815260200190815260200160002060009054906101000a900473ffffffffffffffffffffffffffffffffffffffff1673ffffffffffffffffffffffffffffffffffffffff1614159050919050565b611b66838383611e3b565b505050565b505050565b6000611b918473ffffffffffffffffffffffffffffffffffffffff16611f4d565b15611cea578373ffffffffffffffffffffffffffffffffffffffff1663150b7a02611bba611226565b8786866040518563ffffffff1660e01b8152600401611bdc9493929190613bc4565b6020604051808303816000875af1925050508015611c1857506040513d601f19601f82011682018060405250810190611c159190613c25565b60015b611c9a573d8060008114611c48576040519150601f19603f3d011682016040523d82523d6000602084013e611c4d565b606091505b506000815103611c92576040517f08c379a0000000000000000000000000000000000000000000000000000000008152600401611c89906137ea565b60405180910390fd5b805181602001fd5b63150b7a0260e01b7bffffffffffffffffffffffffffffffffffffffffffffffffffffffff1916817bffffffffffffffffffffffffffffffffffffffffffffffffffffffff191614915050611cef565b600190505b949350505050565b606060405180602001604052806000815250905090565b6060611d19826111db565b6000611d23611cf7565b90506000815111611d435760405180602001604052806000815250611d6e565b80611d4d84611f70565b604051602001611d5e92919061383b565b6040516020818303038152906040525b915050919050565b611d8083836120d0565b611d8d6000848484611b70565b611dcc576040517f08c379a0000000000000000000000000000000000000000000000000000000008152600401611dc3906137ea565b60405180910390fd5b505050565b60007f01ffc9a7000000000000000000000000000000000000000000000000000000007bffffffffffffffffffffffffffffffffffffffffffffffffffffffff1916827bffffffffffffffffffffffffffffffffffffffffffffffffffffffff1916149050919050565b611e468383836122a9565b600073ffffffffffffffffffffffffffffffffffffffff168373ffffffffffffffffffffffffffffffffffffffff1603611e8857611e83816122ae565b611ec7565b8173ffffffffffffffffffffffffffffffffffffffff168373ffffffffffffffffffffffffffffffffffffffff1614611ec657611ec583826122f7565b5b5b600073ffffffffffffffffffffffffffffffffffffffff168273ffffffffffffffffffffffffffffffffffffffff1603611f0957611f0481612464565b611f48565b8273ffffffffffffffffffffffffffffffffffffffff168273ffffffffffffffffffffffffffffffffffffffff1614611f4757611f468282612535565b5b5b505050565b6000808273ffffffffffffffffffffffffffffffffffffffff163b119050919050565b606060008203611fb7576040518060400160405280600181526020017f300000000000000000000000000000000000000000000000000000000000000081525090506120cb565b600082905060005b60008214611fe9578080611fd29061306b565b915050600a82611fe29190613c81565b9150611fbf565b60008167ffffffffffffffff81111561200557612004612a8d565b5b6040519080825280601f01601f1916602001820160405280156120375781602001600182028036833780820191505090505b5090505b600085146120c45760018261205091906136d8565b9150600a8561205f9190613cb2565b603061206b91906132d5565b60f81b8183815181106120815761208061300d565b5b60200101907effffffffffffffffffffffffffffffffffffffffffffffffffffffffffffff1916908160001a905350600a856120bd9190613c81565b945061203b565b8093505050505b919050565b600073ffffffffffffffffffffffffffffffffffffffff168273ffffffffffffffffffffffffffffffffffffffff160361213f576040517f08c379a000000000000000000000000000000000000000000000000000000000815260040161213690613d2f565b60405180910390fd5b61214881611aef565b15612188576040517f08c379a000000000000000000000000000000000000000000000000000000000815260040161217f90613d9b565b60405180910390fd5b61219460008383611b5b565b6001600360008473ffffffffffffffffffffffffffffffffffffffff1673ffffffffffffffffffffffffffffffffffffffff16815260200190815260200160002060008282546121e491906132d5565b92505081905550816002600083815260200190815260200160002060006101000a81548173ffffffffffffffffffffffffffffffffffffffff021916908373ffffffffffffffffffffffffffffffffffffffff160217905550808273ffffffffffffffffffffffffffffffffffffffff16600073ffffffffffffffffffffffffffffffffffffffff167fddf252ad1be2c89b69c2b068fc378daa952ba7f163c4a11628f55a4df523b3ef60405160405180910390a46122a560008383611b6b565b5050565b505050565b600980549050600a600083815260200190815260200160002081905550600981908060018154018082558091505060019003906000526020600020016000909190919091505550565b6000600161230484610c5c565b61230e91906136d8565b90506000600860008481526020019081526020016000205490508181146123f3576000600760008673ffffffffffffffffffffffffffffffffffffffff1673ffffffffffffffffffffffffffffffffffffffff168152602001908152602001600020600084815260200190815260200160002054905080600760008773ffffffffffffffffffffffffffffffffffffffff1673ffffffffffffffffffffffffffffffffffffffff168152602001908152602001600020600084815260200190815260200160002081905550816008600083815260200190815260200160002081905550505b6008600084815260200190815260200160002060009055600760008573ffffffffffffffffffffffffffffffffffffffff1673ffffffffffffffffffffffffffffffffffffffff16815260200190815260200160002060008381526020019081526020016000206000905550505050565b6000600160098054905061247891906136d8565b90506000600a60008481526020019081526020016000205490506000600983815481106124a8576124a761300d565b5b9060005260206000200154905080600983815481106124ca576124c961300d565b5b906000526020600020018190555081600a600083815260200190815260200160002081905550600a600085815260200190815260200160002060009055600980548061251957612518613dbb565b5b6001900381819060005260206000200160009055905550505050565b600061254083610c5c565b905081600760008573ffffffffffffffffffffffffffffffffffffffff1673ffffffffffffffffffffffffffffffffffffffff168152602001908152602001600020600083815260200190815260200160002081905550806008600084815260200190815260200160002081905550505050565b6000604051905090565b600080fd5b600080fd5b60007fffffffff0000000000000000000000000000000000000000000000000000000082169050919050565b6125fd816125c8565b811461260857600080fd5b50565b60008135905061261a816125f4565b92915050565b600060208284031215612636576126356125be565b5b60006126448482850161260b565b91505092915050565b60008115159050919050565b6126628161264d565b82525050565b600060208201905061267d6000830184612659565b92915050565b61268c8161264d565b811461269757600080fd5b50565b6000813590506126a981612683565b92915050565b6000602082840312156126c5576126c46125be565b5b60006126d38482850161269a565b91505092915050565b600081519050919050565b600082825260208201905092915050565b60005b838110156127165780820151818401526020810190506126fb565b60008484015250505050565b6000601f19601f8301169050919050565b600061273e826126dc565b61274881856126e7565b93506127588185602086016126f8565b61276181612722565b840191505092915050565b600060208201905081810360008301526127868184612733565b905092915050565b6000819050919050565b6127a18161278e565b81146127ac57600080fd5b50565b6000813590506127be81612798565b92915050565b6000602082840312156127da576127d96125be565b5b60006127e8848285016127af565b91505092915050565b600073ffffffffffffffffffffffffffffffffffffffff82169050919050565b600061281c826127f1565b9050919050565b61282c81612811565b82525050565b60006020820190506128476000830184612823565b92915050565b61285681612811565b811461286157600080fd5b50565b6000813590506128738161284d565b92915050565b600080604083850312156128905761288f6125be565b5b600061289e85828601612864565b92505060206128af858286016127af565b9150509250929050565b6128c28161278e565b82525050565b60006020820190506128dd60008301846128b9565b92915050565b6000806000606084860312156128fc576128fb6125be565b5b600061290a86828701612864565b935050602061291b86828701612864565b925050604061292c868287016127af565b9150509250925092565b60006020828403121561294c5761294b6125be565b5b600061295a84828501612864565b91505092915050565b600081519050919050565b600082825260208201905092915050565b6000819050602082019050919050565b6129988161278e565b82525050565b60006129aa838361298f565b60208301905092915050565b6000602082019050919050565b60006129ce82612963565b6129d8818561296e565b93506129e38361297f565b8060005b83811015612a145781516129fb888261299e565b9750612a06836129b6565b9250506001810190506129e7565b5085935050505092915050565b60006020820190508181036000830152612a3b81846129c3565b905092915050565b60008060408385031215612a5a57612a596125be565b5b6000612a6885828601612864565b9250506020612a798582860161269a565b9150509250929050565b600080fd5b600080fd5b7f4e487b7100000000000000000000000000000000000000000000000000000000600052604160045260246000fd5b612ac582612722565b810181811067ffffffffffffffff82111715612ae457612ae3612a8d565b5b80604052505050565b6000612af76125b4565b9050612b038282612abc565b919050565b600067ffffffffffffffff821115612b2357612b22612a8d565b5b612b2c82612722565b9050602081019050919050565b82818337600083830152505050565b6000612b5b612b5684612b08565b612aed565b905082815260208101848484011115612b7757612b76612a88565b5b612b82848285612b39565b509392505050565b600082601f830112612b9f57612b9e612a83565b5b8135612baf848260208601612b48565b91505092915050565b60008060008060808587031215612bd257612bd16125be565b5b6000612be087828801612864565b9450506020612bf187828801612864565b9350506040612c02878288016127af565b925050606085013567ffffffffffffffff811115612c2357612c226125c3565b5b612c2f87828801612b8a565b91505092959194509250565b600067ffffffffffffffff821115612c5657612c55612a8d565b5b612c5f82612722565b9050602081019050919050565b6000612c7f612c7a84612c3b565b612aed565b905082815260208101848484011115612c9b57612c9a612a88565b5b612ca6848285612b39565b509392505050565b600082601f830112612cc357612cc2612a83565b5b8135612cd3848260208601612c6c565b91505092915050565b600060208284031215612cf257612cf16125be565b5b600082013567ffffffffffffffff811115612d1057612d0f6125c3565b5b612d1c84828501612cae565b91505092915050565b60008060408385031215612d3c57612d3b6125be565b5b6000612d4a85828601612864565b9250506020612d5b85828601612864565b9150509250929050565b7f4e487b7100000000000000000000000000000000000000000000000000000000600052602260045260246000fd5b60006002820490506001821680612dac57607f821691505b602082108103612dbf57612dbe612d65565b5b50919050565b7f4552433732313a20617070726f76616c20746f2063757272656e74206f776e6560008201527f7200000000000000000000000000000000000000000000000000000000000000602082015250565b6000612e216021836126e7565b9150612e2c82612dc5565b604082019050919050565b60006020820190508181036000830152612e5081612e14565b9050919050565b7f4552433732313a20617070726f76652063616c6c6572206973206e6f7420746f60008201527f6b656e206f776e6572206e6f7220617070726f76656420666f7220616c6c0000602082015250565b6000612eb3603e836126e7565b9150612ebe82612e57565b604082019050919050565b60006020820190508181036000830152612ee281612ea6565b9050919050565b7f4552433732313a2063616c6c6572206973206e6f7420746f6b656e206f776e6560008201527f72206e6f7220617070726f766564000000000000000000000000000000000000602082015250565b6000612f45602e836126e7565b9150612f5082612ee9565b604082019050919050565b60006020820190508181036000830152612f7481612f38565b9050919050565b7f455243373231456e756d657261626c653a206f776e657220696e646578206f7560008201527f74206f6620626f756e6473000000000000000000000000000000000000000000602082015250565b6000612fd7602b836126e7565b9150612fe282612f7b565b604082019050919050565b6000602082019050818103600083015261300681612fca565b9050919050565b7f4e487b7100000000000000000000000000000000000000000000000000000000600052603260045260246000fd5b7f4e487b7100000000000000000000000000000000000000000000000000000000600052601160045260246000fd5b60006130768261278e565b91507fffffffffffffffffffffffffffffffffffffffffffffffffffffffffffffffff82036130a8576130a761303c565b5b600182019050919050565b7f455243373231456e756d657261626c653a20676c6f62616c20696e646578206f60008201527f7574206f6620626f756e64730000000000000000000000000000000000000000602082015250565b600061310f602c836126e7565b915061311a826130b3565b604082019050919050565b6000602082019050818103600083015261313e81613102565b9050919050565b7f4552433732313a20696e76616c696420746f6b656e2049440000000000000000600082015250565b600061317b6018836126e7565b915061318682613145565b602082019050919050565b600060208201905081810360008301526131aa8161316e565b9050919050565b7f4552433732313a2061646472657373207a65726f206973206e6f74206120766160008201527f6c6964206f776e65720000000000000000000000000000000000000000000000602082015250565b600061320d6029836126e7565b9150613218826131b1565b604082019050919050565b6000602082019050818103600083015261323c81613200565b9050919050565b7f436f6e7472616374207061757365642c206e6f206d696e74696e6720616c6c6f60008201527f7765642e00000000000000000000000000000000000000000000000000000000602082015250565b600061329f6024836126e7565b91506132aa82613243565b604082019050919050565b600060208201905081810360008301526132ce81613292565b9050919050565b60006132e08261278e565b91506132eb8361278e565b92508282019050808211156133035761330261303c565b5b92915050565b7f4d617820737570706c7920726561636865642c206e6f206d696e74696e67206160008201527f6c6c6f7765640000000000000000000000000000000000000000000000000000602082015250565b60006133656026836126e7565b915061337082613309565b604082019050919050565b6000602082019050818103600083015261339481613358565b9050919050565b600081905092915050565b7f4e6f7420656e6f7567682066756e642c2073686f756c6420706179206d6f726560008201527f207468616e200000000000000000000000000000000000000000000000000000602082015250565b600061340260268361339b565b915061340d826133a6565b602682019050919050565b6000819050919050565b61343361342e8261278e565b613418565b82525050565b7f6574680000000000000000000000000000000000000000000000000000000000600082015250565b600061346f60038361339b565b915061347a82613439565b600382019050919050565b6000613490826133f5565b915061349c8284613422565b6020820191506134ab82613462565b915081905092915050565b7f4f776e61626c653a206e6577206f776e657220697320746865207a65726f206160008201527f6464726573730000000000000000000000000000000000000000000000000000602082015250565b60006135126026836126e7565b915061351d826134b6565b604082019050919050565b6000602082019050818103600083015261354181613505565b9050919050565b7f4f776e61626c653a2063616c6c6572206973206e6f7420746865206f776e6572600082015250565b600061357e6020836126e7565b915061358982613548565b602082019050919050565b600060208201905081810360008301526135ad81613571565b9050919050565b7f4552433732313a207472616e736665722066726f6d20696e636f72726563742060008201527f6f776e6572000000000000000000000000000000000000000000000000000000602082015250565b60006136106025836126e7565b915061361b826135b4565b604082019050919050565b6000602082019050818103600083015261363f81613603565b9050919050565b7f4552433732313a207472616e7366657220746f20746865207a65726f2061646460008201527f7265737300000000000000000000000000000000000000000000000000000000602082015250565b60006136a26024836126e7565b91506136ad82613646565b604082019050919050565b600060208201905081810360008301526136d181613695565b9050919050565b60006136e38261278e565b91506136ee8361278e565b92508282039050818111156137065761370561303c565b5b92915050565b7f4552433732313a20617070726f766520746f2063616c6c657200000000000000600082015250565b60006137426019836126e7565b915061374d8261370c565b602082019050919050565b6000602082019050818103600083015261377181613735565b9050919050565b7f4552433732313a207472616e7366657220746f206e6f6e20455243373231526560008201527f63656976657220696d706c656d656e7465720000000000000000000000000000602082015250565b60006137d46032836126e7565b91506137df82613778565b604082019050919050565b60006020820190508181036000830152613803816137c7565b9050919050565b6000613815826126dc565b61381f818561339b565b935061382f8185602086016126f8565b80840191505092915050565b6000613847828561380a565b9150613853828461380a565b91508190509392505050565b7f45524337323155524953746f726167653a2055524920736574206f66206e6f6e60008201527f6578697374656e7420746f6b656e000000000000000000000000000000000000602082015250565b60006138bb602e836126e7565b91506138c68261385f565b604082019050919050565b600060208201905081810360008301526138ea816138ae565b9050919050565b60008190508160005260206000209050919050565b60006020601f8301049050919050565b600082821b905092915050565b6000600883026139537fffffffffffffffffffffffffffffffffffffffffffffffffffffffffffffffff82613916565b61395d8683613916565b95508019841693508086168417925050509392505050565b6000819050919050565b600061399a6139956139908461278e565b613975565b61278e565b9050919050565b6000819050919050565b6139b48361397f565b6139c86139c0826139a1565b848454613923565b825550505050565b600090565b6139dd6139d0565b6139e88184846139ab565b505050565b5b81811015613a0c57613a016000826139d5565b6001810190506139ee565b5050565b601f821115613a5157613a22816138f1565b613a2b84613906565b81016020851015613a3a578190505b613a4e613a4685613906565b8301826139ed565b50505b505050565b600082821c905092915050565b6000613a7460001984600802613a56565b1980831691505092915050565b6000613a8d8383613a63565b9150826002028217905092915050565b613aa6826126dc565b67ffffffffffffffff811115613abf57613abe612a8d565b5b613ac98254612d94565b613ad4828285613a10565b600060209050601f831160018114613b075760008415613af5578287015190505b613aff8582613a81565b865550613b67565b601f198416613b15866138f1565b60005b82811015613b3d57848901518255600182019150602085019450602081019050613b18565b86831015613b5a5784890151613b56601f891682613a63565b8355505b6001600288020188555050505b505050505050565b600081519050919050565b600082825260208201905092915050565b6000613b9682613b6f565b613ba08185613b7a565b9350613bb08185602086016126f8565b613bb981612722565b840191505092915050565b6000608082019050613bd96000830187612823565b613be66020830186612823565b613bf360408301856128b9565b8181036060830152613c058184613b8b565b905095945050505050565b600081519050613c1f816125f4565b92915050565b600060208284031215613c3b57613c3a6125be565b5b6000613c4984828501613c10565b91505092915050565b7f4e487b7100000000000000000000000000000000000000000000000000000000600052601260045260246000fd5b6000613c8c8261278e565b9150613c978361278e565b925082613ca757613ca6613c52565b5b828204905092915050565b6000613cbd8261278e565b9150613cc88361278e565b925082613cd857613cd7613c52565b5b828206905092915050565b7f4552433732313a206d696e7420746f20746865207a65726f2061646472657373600082015250565b6000613d196020836126e7565b9150613d2482613ce3565b602082019050919050565b60006020820190508181036000830152613d4881613d0c565b9050919050565b7f4552433732313a20746f6b656e20616c7265616479206d696e74656400000000600082015250565b6000613d85601c836126e7565b9150613d9082613d4f565b602082019050919050565b60006020820190508181036000830152613db481613d78565b9050919050565b7f4e487b7100000000000000000000000000000000000000000000000000000000600052603160045260246000fdfea2646970667358221220d1be23359b8b657e7cf6ec59ce8543cb7bf8bb0fec623d1edc94233b817301db64736f6c63430008110033",
  "immutableReferences": {},
  "source": "//SPDX-License-Identifier: MIT\npragma solidity >=0.7.0 <0.9.0;\n\nimport \"@openzeppelin/contracts/token/ERC721/extensions/ERC721Enumerable.sol\";\nimport \"@openzeppelin/contracts/token/ERC721/extensions/ERC721URIStorage.sol\";\nimport \"@openzeppelin/contracts/access/Ownable.sol\";\n\ncontract AvatarRenderer is ERC721, Ownable, ERC721Enumerable, ERC721URIStorage {\n    using Strings for uint256;\n\n    uint256 public cost = 0.08 ether;\n    uint256 public maxSupply = 10000;\n    uint256 public counterSupply = 0;\n    bool public paused = true;\n\n    constructor(string memory _name, string memory _symbol)\n        ERC721(_name, _symbol)\n    {}\n\n    // public\n    function mint(string memory _metadataURI)  public payable returns (uint256) {\n        uint256 supply = totalSupply();\n        require(!paused, \"Contract paused, no minting allowed.\");\n        require(\n            supply + 1 <= maxSupply,\n            \"Max supply reached, no minting allowed\"\n        );\n        require(msg.value >= cost,(string) (abi.encodePacked(\n                \"Not enough fund, should pay more than \",\n                cost,\n                \"eth\"\n            ))\n        );\n\n        _safeMint(msg.sender, supply + 1);\n\n        _setTokenURI(supply + 1, _metadataURI);\n\n        return supply + 1;\n    }\n\n    function walletOfOwner(address _owner)\n        public\n        view\n        returns (uint256[] memory)\n    {\n        uint256 ownerTokenCount = balanceOf(_owner);\n        uint256[] memory tokenIds = new uint256[](ownerTokenCount);\n        for (uint256 i; i < ownerTokenCount; i++) {\n            tokenIds[i] = tokenOfOwnerByIndex(_owner, i);\n        }\n        return tokenIds;\n    }\n\n    function setCost(uint256 _newCost) public onlyOwner {\n        cost = _newCost;\n    }\n\n    function setMaxSupply(uint256 _newMaxSupply) public onlyOwner {\n        maxSupply = _newMaxSupply;\n    }\n\n    function pause(bool _state) public onlyOwner {\n        paused = _state;\n    }\n\n    function _beforeTokenTransfer(\n        address from,\n        address to,\n        uint256 tokenId\n    ) internal override(ERC721, ERC721Enumerable) {\n        super._beforeTokenTransfer(from, to, tokenId);\n    }\n\n    function _burn(uint256 tokenId)\n        internal\n        override(ERC721, ERC721URIStorage)\n    {\n        super._burn(tokenId);\n    }\n\n    function tokenURI(uint256 tokenId)\n        public\n        view\n        override(ERC721, ERC721URIStorage)\n        returns (string memory)\n    {\n        return super.tokenURI(tokenId);\n    }\n\n    function supportsInterface(bytes4 interfaceId)\n        public\n        view\n        override(ERC721, ERC721Enumerable)\n        returns (bool)\n    {\n        return super.supportsInterface(interfaceId);\n    }\n\n    function _baseURI() internal pure override returns (string memory) {\n        return \"\";\n    }\n}\n",
  "sourcePath": "/home/romain/code/avatarRenderer/contractAvatarRenderer/contracts/AvatarRenderer.sol",
  "compiler": {
    "name": "solc",
    "version": "0.8.17+commit.8df45f5f.Emscripten.clang"
  },
  "schemaVersion": "3.4.10",
  "updatedAt": "2022-10-14T10:09:19.993Z",
  "devdoc": {
    "kind": "dev",
    "methods": {
      "approve(address,uint256)": {
        "details": "See {IERC721-approve}."
      },
      "balanceOf(address)": {
        "details": "See {IERC721-balanceOf}."
      },
      "getApproved(uint256)": {
        "details": "See {IERC721-getApproved}."
      },
      "isApprovedForAll(address,address)": {
        "details": "See {IERC721-isApprovedForAll}."
      },
      "name()": {
        "details": "See {IERC721Metadata-name}."
      },
      "owner()": {
        "details": "Returns the address of the current owner."
      },
      "ownerOf(uint256)": {
        "details": "See {IERC721-ownerOf}."
      },
      "renounceOwnership()": {
        "details": "Leaves the contract without owner. It will not be possible to call `onlyOwner` functions anymore. Can only be called by the current owner. NOTE: Renouncing ownership will leave the contract without an owner, thereby removing any functionality that is only available to the owner."
      },
      "safeTransferFrom(address,address,uint256)": {
        "details": "See {IERC721-safeTransferFrom}."
      },
      "safeTransferFrom(address,address,uint256,bytes)": {
        "details": "See {IERC721-safeTransferFrom}."
      },
      "setApprovalForAll(address,bool)": {
        "details": "See {IERC721-setApprovalForAll}."
      },
      "symbol()": {
        "details": "See {IERC721Metadata-symbol}."
      },
      "tokenByIndex(uint256)": {
        "details": "See {IERC721Enumerable-tokenByIndex}."
      },
      "tokenOfOwnerByIndex(address,uint256)": {
        "details": "See {IERC721Enumerable-tokenOfOwnerByIndex}."
      },
      "totalSupply()": {
        "details": "See {IERC721Enumerable-totalSupply}."
      },
      "transferFrom(address,address,uint256)": {
        "details": "See {IERC721-transferFrom}."
      },
      "transferOwnership(address)": {
        "details": "Transfers ownership of the contract to a new account (`newOwner`). Can only be called by the current owner."
      }
    },
    "version": 1
  },
  "userdoc": {
    "kind": "user",
    "methods": {},
    "version": 1
  }
}